S0130000506561726C5F426C696E6B792E73333725
S113000000000420C1010000ED010000ED0100002A
S1130010ED010000ED010000ED010000ED01000024
S1130020ED010000ED010000ED010000ED01000014
S1130030ED010000ED010000ED010000ED01000004
S1130040ED010000ED010000ED010000ED010000F4
S1130050ED010000ED010000ED010000ED010000E4
S1130060ED010000ED010000ED010000ED010000D4
S1130070ED010000ED010000ED010000ED010000C4
S1130080ED010000ED010000ED010000ED010000B4
S1130090ED010000ED010000ED010000ED010000A4
S11300A0ED010000ED010000ED010000ED01000094
S11300B0ED010000ED010000ED010000ED01000084
S11300C0ED010000ED010000ED010000ED01000074
S11300D0ED010000ED010000ED010000ED01000064
S11300E0ED010000ED010000ED010000ED01000054
S11300F0ED010000ED010000ED010000ED01000044
S1130100ED010000ED010000ED01000010B5054C0B
S1130110237833B9044B13B10448AFF300800123AF
S1130120237010BD7C00002000000000C4140000F7
S113013008B5034B1BB103490348AFF3008008BD66
S11301400000000080000020C4140000154B002BA8
S113015008BF134B9D46A3F5803A00218B460F46FA
S11301601348144A121A01F067F90F4B002B00D000
S113017098470E4B002B00D0984700200021040024
S11301800D000D48002802D00C48AFF3008001F0A8
S11301902FF92000290001F0BBF801F015F900BF88
S11301A0000008000000042000000000000000001F
S11301B07C000020A40000200000000000000000DB
S11301C0064880470649074A074B9A42BEBF51F882
S11301D0040B42F8040BF8E7FFF7B8FF79020000BC
S11301E0D0140000000000207C000020FEE700BFC7
S11301F000487047005A62020F4BD3F8943003F062
S11302000703032B14D0042B0FD0022B0AD00B4B63
S11302101868094BD3F80031C3F304230133B0FB4E
S1130220F3F07047064B1868F3E7064B1868F0E7DD
S11302304FF40040EDE700BF00400E4008000020EE
S1130240040000200C00002008B5FFF7D5FF054B83
S1130250054AD3F80831C3F308230133B0FBF3F0A4
S1130260106008BD00400E4000000020014B1868DB
S1130270704700BF04000020044B054A9A60D3F87D
S1130280882042F47002C3F88820704700ED00E033
S1130290000000004FF40040704700BF4FF47A7034
S11302A0704700BF014B1868704700BF0C00002066
S11302B010B4134B134A5B680024C9B28C42234622
S11302C008D00133052B02F1080215D012F8084CAE
S11302D08C42F6D152F80C4C8442F2D30A4A02EB17
S11302E0C3035B791A0606495DF8044B4B6823F097
S11302F0407313434B6070474FF04072F3E700BF05
S113030000000E40801400007414000038B5074C3F
S113031041F67133256C2364FFF76AFF0021FFF770
S1130320C7FF0DB10023236438BD00BF00000E4099
S11303300C4A0D4BD2F89010516A21F0300141F073
S1130340100110B45162146BC0F3C3110331234084
S11303500F2928BF0F21034343EA017313635DF898
S1130360044B704700400E4000F8FF0F38B5054CB1
S113037041F67133256C2364FFF79AFF0DB1002316
S1130380236438BD00000E40C0F30323013B30B4A6
S1130390092B0CD8DFE803F00D110B0B152D190BED
S11303A02705164CC0F3043020448000016030BCA3
S11303B07047C0F30430124CF6E7C0F30430114C1C
S11303C0F2E7C0F30430104CEEE7104CC0F30430F5
S11303D010250F4BD3F84421D207E5D4D3F840219C
S11303E02A42FBD1E0E7C0F304300A4C4FF48035D5
S11303F0EFE7C0F30430084C0125EAE7800AF21065
S11304000000F2100006F2108005F2104007F2100E
S113041000400E408007F2100007F21000F00F00B9
S11304200138072847D8DFE800F0121D3346283E7C
S11304304604264BD3F85C3103F03003202B40D024
S1130440302B40D0102B0CBF0720012070471F4BCE
S1130450D3F8943003F00703023B052B2FD81C4A32
S1130460D05C7047194BD3F8803003F00703013B8D
S1130470032B22D8174AD05C7047144BD3F888302A
S113048003F00703013B032B17D8134AD05C7047D2
S11304900E4BD3F8843003F00703013B032B0CD835
S11304A00E4AD05C7047094B1B6F13F0010F14BF49
S11304B0092007207047002070470120704705205D
S11304C07047042070470820704700BF00400E406A
S11304D0641400006C1400006C140000701400001C
S11304E008B50146FFF79AFF1E4B99422FD01E4BC9
S11304F0994226D01D4B99421DD00138032803D8B8
S1130500DFE800F01511042B002008BDFFF79CFE66
S1130510174BD3F80031C3F300635A1C01239340F3
S1130520B0FBF3F008BDBDE80840FFF7BBBEBDE873
S11305300840FFF7AFBE0E4BD3F8800000F0070071
S1130540DBE70B4BD3F8880000F00700D5E7084B36
S1130550D3F8840000F00700CFE7BDE80840FFF7B8
S11305609DBE00BF030020000500240002001E0001
S113057000400E4000F47810B0F5A01F08B500F05C
S113058098801BD9B0F5001F33D054D9B0F5381F6B
S113059034D066D9B0F5401F6BD0B0F5481F1AD1DE
S11305A05B48FFF73BFF072842D0082800F0A580EE
S11305B0042810D1BDE80840FFF758BEB0F5202F3D
S11305C013D00AD9B0F5602F2DD0B0F5801F2FD0ED
S11305D0B0F5402F1CD0002008BDB0F5003F7DD001
S11305E0B0F5802F6FD00028F5D1BDE80840FFF7A3
S11305F003BE4848BDE80840FFF772BF4648FFF70E
S11306006FFF464BD3F82031C3F30113D84008BD24
S1130610FFF7F2FD414BD3F81431C3F30423013344
S1130620B0FBF3F008BD3E48FFF7F8FE072860D1A1
S11306303C4B186808BDB0F5D01F2DD0B0F5F01FA5
S113064025D0B0F5B01FC6D13348FFF749FF334B6F
S1130650D3F82021012302F00F029340B0FBF3F002
S113066008BDB0F5101FB6D12F48BDE80840FFF70C
S113067037BF2848FFF734FF284BD3F82831C3F39A
S113068001231A1D01239340B0FBF3F008BD224857
S1130690BDE80840FFF724BF1E48FFF721FF1F4BAA
S11306A0D3F828210123C2F301129340B0FBF3F0E5
S11306B008BD1D48FFF714FF184BD3F8303103F081
S11306C00303D84008BDFFF797FD144BD3F80C3152
S11306D0C3F308230133B0FBF3F008BDFFF78CFD2F
S11306E00E4BD3F80831C3F308230133B0FBF3F006
S11306F008BD09287FF46FAF77E7FFF77DFD074B4F
S1130700D3F80031C3F3042303FB000008BD00BF8A
S1130710B80032000300200002001E0000400E401A
S113072006000E0010000020050024000F4B5B6A39
S113073013F0300F06D0202914D0302902D009B18B
S11307400B4A01E04FF440020849D1F8903032EAF4
S11307500303FAD1530246BFD1F8A000C0F38020AE
S1130760012070474FF40002EEE700BF00400E4046
S1130770FF33E107F8B5042818D8DFE800F0301893
S1130780374D52003F4C1C44A40000213E4B1D66D3
S11307902368002BFCD04AB13A4C3444A4002368AB
S11307A0002BFCD0022801D1002948D1F8BD8024B7
S11307B04025062307260029E4D101209840324928
S11307C00C66D1F890300342FBD1002AEED001220E
S11307D02D49B240D1F890301342FBD1F8BD4FF40B
S11307E000744FF4807508230926E4E7002944D0F7
S11307F0254B5C6A14F0300F18D1244CE46B5C6A0E
S1130800E40718D55D6A224C25F0300545F0100543
S11308105D6203260425B9E701252E460224002340
S1130820C9E72024102504230526C4E7184C042511
S113083003260021AAE7164C04250326A6E7124A3C
S1130840114E516A11F001011FBF20214FF4806342
S1130850C2F8A8305166FFF769FFD6F89C700122F0
S113086000210220FFF786FFC7F30A00FFF760FDAF
S113087035662368002BFCD0F8BD04200824032629
S11308809DE700BF8004F21000400E4000300E408F
S11308900812C8431128F8B50C460DD000F00F001B
S11308A00138072807D8DFE800F00C6466063F5BD0
S11308B0062904232B60F8BD042900F09080052943
S11308C05BD00025023C0A2CF5D801A353F824F090
S11308D0F10A0000B90A0000BF0A0000D90A0000AA
S11308E0B7080000B7080000B7080000B708000008
S11308F0B7080000330A0000F70A00004C1E072C5A
S1130900D9D801A353F824F02F0A0000B708000037
S1130910B7080000210A0000B7080000B70800006B
S1130920130A0000FF090000774D013C092CC2D8CE
S113093001A353F824F000BFDB090000CD09000037
S1130940BF090000B7080000B70800008F090000C5
S1130950B7080000B7080000B7080000B30800009B
S1130960072900F0CD800929A5D1684B01221A6717
S1130970F8BD674DD9E7674DD7E7674A674B1568F8
S11309809D429ED90021284600F0F0F99AE7FFF72E
S11309905BFC634B984229D800231C4661495B4A9F
S11309A00C60D2F8000101F5AE51083120F08070DE
S11309B018430124C2F8000103230C607AE70122E2
S11309C011461046FFF7D6FE012373E701221146B4
S11309D00020FFF7CFFE02236CE700236AE7FFF74E
S11309E045FC054600283FF46CAFCBE74E4B012491
S11309F098428CBF4FF000734FF08073CEE73021E4
S1130A00424AD2F85C3123F030030B43C2F85C3124
S1130A10F8BD012211460420FFF7ACFE1021EFE7D8
S1130A20012211460220FFF7A5FE2021E8E700215C
S1130A30E6E70320052401221146FFF79BFEFFF79A
S1130A4065FC1DB1394A1368002BFCD12F4B384883
S1130A505C67FFF78FFD324B98424ED9324B01242D
S1130A6098428CBF4FF000734FF080732D49274A92
S1130A700C60D2F8000120F080701843C2F8000125
S1130A80FFF7E2FB294B1C68002CFCD1294B2A4EB2
S1130A905968376C41F67133C1F301413364FFF790
S1130AA007FC07B13464002D7FF405AF284601210B
S1130AB0BDE8F84000F05AB901200324BBE7194B04
S1130AC0124A01211960D2F80031022043F08073E8
S1130AD0C2F800310446AEE7124B0C4A01241C60F4
S1130AE0D2F8003143F08073C2F800310320A2E74A
S1130AF0002004249FE70724A1E700231C46B5E750
S1130B00024B00221A67F8BD88400E4000400E4098
S1130B1080400E4084400E4008000020002D31012A
S1130B200048E8014000C8430090D003C800C64311
S1130B3000250A0000300E4000000E4038B504467F
S1130B401120FFF76BFC012200210220FFF712FEA7
S1130B50174A257C536A1749207823F00103022D94
S1130B6008BF43F0010353620860A388617AE588F3
S1130B7041EAC321D162136B207AA17A03F07F6327
S1130B800B43C11C43EAC5230F2943EAC01328BF02
S1130B900F2143EA01731363A37B657BE07B217B15
S1130BA01B0143EA0533034343EA0143536338BD5E
S1130BB000400E40A004C84342EA032340F201125D
S1130BC093425BD0B3F5817F14D340F20122934268
S1130BD04BD030D9B3F5407F24D040F20132934258
S1130BE03ED12B4BD3F878311A0EC3F3074303607D
S1130BF00A607047012B2AD00BD3B3F5807F2FD125
S1130C00234BD3F86C311A0EC3F3074303600A6015
S1130C1070471F4BD3F86C31C3F30722DBB2036078
S1130C200A6070471A4BD3F870311A0EC3F30743A6
S1130C3003600A607047B3F5007F11D1144BD3F8F9
S1130C407031C3F30722DBB203600A607047104BB4
S1130C50D3F87431C3F30722DBB203600A60704730
S1130C600022134603600A607047094BD3F87831B9
S1130C70C3F30722DBB203600A607047044BD3F866
S1130C8074311A0EC3F3074303600A60704700BF50
S1130C90B081E00F154B0228D3F8803122D003280D
S1130CA01ED0012814BFDBB2C3F307231B0323F4B4
S1130CB0704241B992B90E49CA6E22F4704213438C
S1130CC0CB66012070474AB90949D1F8EC2022F4D7
S1130CD070421343C1F8EC30012070470020704784
S1130CE01B0EE3E7C3F30743E0E700BFB081E00F67
S1130CF000300E401A4B2DE9F041D3F80031044680
S1130D000E46FFF779FA174A07461368002BFCD101
S1130D10DFF85480D8F80430C3F301439C420ED06A
S1130D20C4F102031025022C05FA03F50FD0C8F80C
S1130D3010501EB10B4A1368002BFCD10CB1BDE856
S1130D40F08121463846BDE8F041FFF70FBB21464C
S1130D503846FFF70BFBC8F81050002EEFD0E9E738
S1130D6000400E40C800C64300300E4010B5104B82
S1130D7082B0D3F8004158B10E4B1B7813B10E4B1F
S1130D8098420ED9002002B0BDE81040FFF7B2BF70
S1130D900191FFF731FAC4F3042404FB0000019924
S1130DA0EAE7022002B0BDE81040FFF7A3BF00BF8E
S1130DB000400E40A0000020FF2C31011E4A936F1A
S1130DC0DB07FCD4136C13F003031CD01B4A012172
S1130DD0834211601CD0032B02D1431E012B18D96E
S1130DE0154A936FD907FCD4136C134923F00303FA
S1130DF0034313648B6FDB07FCD400300F4B18BF25
S1130E000120186070470028E7D10C4B1860704728
S1130E107047094A4FF40023D362936FD907FCD477
S1130E20136C054923F0030343F0010313644B6A75
S1130E301B03FCD5D4E700BF00300E40B40AC64300
S1130E402DE9F04FA0F5E16489B00023B4F5966F65
S1130E50CDE90233CDE90433CDE9063370D8514BE3
S1130E60B0F5E16FD3F868318CBF4FF0010A4FF051
S1130E70000A69D1C3F30724DBB2079404934FF447
S1130E80167B4FF49665DFF820910191D9F84C60F8
S1130E90C6F30176044605A902A833469046524695
S1130EA0FFF78AFED9F8EC70C7F3012752463B4698
S1130EB006A903A8FFF780FE049A0799651B8B1AFD
S1130EC005FB03F3B3FBFBF3D3182CBF0122002271
S1130ED0994235D3002A33D1069903980A1A05FB9F
S1130EE002F2B2FBFBF210EB020A2CBF0122002239
S1130EF0514525D322BB0299059A501A05FB00F5EA
S1130F00B5FBFBFB11EB0B0B2CBF012100215A4558
S1130F1016D3A9B9B8F1000F0ED0D9F85C2022F489
S1130F20FE4222F0020242EA0323B4F5E16F1E4AB4
S1130F3018BF43F00203D365019B7BB9012000E095
S1130F40002009B0BDE8F08F1C0EC3F307430794DB
S1130F5004934FF4966B4FF4E16594E73046002117
S1130F60FFF798FE0028EBD038460121FFF792FEE8
S1130F700028E5D00C4A536ED34538BFD34623F43A
S1130F80FF73BBF1E70F23F0010328BF4FF0E70B1A
S1130F90B4F5E16F18BF43F0010343EA4B03536612
S1130FA0CFE700BFB081E00F00300E403A4B1A6F1C
S1130FB0D96CC90730B402F007020BD5012A57D9FE
S1130FC0132852D9143813288CBF4FF47F424FF49E
S1130FD0EE4207E0D96CCD073BD4012A51D9DB6C32
S1130FE06FF0FF022C482D4DC36C2D4C23F47F432E
S1130FF01343C364C16C2B88C26CC1F30321013158
S1131000283301EB810503EB5303B3FBF5F3013BF9
S1131010072B22F0EE6228BF072342F4801242EA33
S11310200363B4F90020C364002A10DB036D4C0889
S1131030283204EB410102EB520223F07004B2FBAC
S1131040F1F3072B28BF072344EA0313036530BCDD
S11310507047DB6CDC0711D5012A0FD827288CBF19
S11310604FF47F424FF4EE42BCE74FF44C52B9E7E1
S1131070DA6CD10705D5DB6CDB07EFD46FF0FF0228
S1131080B0E70928F1D90A3809288CBF4FF47F4208
S11310904FF4EE42A6E700BF00300E409A00002055
S11310A09C000020F8B53F4B02229A639B6B03F02F
S11310B00F03934202D000252846F8BDC288B0F938
S11310C00CC04A2A5BD9B2F5FA7F68D340F6C31341
S11310D09A428CBF4FF040554FF000553149324F82
S11310E0CB6C324E23F0405323F00103BCF1000FCC
S11310F0A8BF43F001032B43CB64D1F8EC3043F495
S11311004073C1F8EC30CB6E43F08073CB663B6820
S113111004463088002B34D13B680B6F23F007035F
S11311200B67FFF743FF224B2249A0882589B4F9B6
S11311300C201A8030800D80FFF738FFA37B53B357
S1131140012B02D1174B1C4A9A6501221146608873
S1131150FFF776FE05460028ADD0124A6078D36BBF
S113116043F48063D363FFF729FEA37A134AA3F100
S11311702003B3FA83F35B0913602846F8BD002506
S1131180ACE73B680B6F23F0070343F004030B67E2
S1131190FFF70CFFC7E7034B094A9A65D5E74FF001
S11311A080559BE700300E408009C643980000201C
S11311B09C0000209A000020372110B79407C643F2
S11311C07740205700EB4000000100F1804000F51B
S11311D0204000F1806300F1C0604FF001121A60FA
S11311E001607047F0B444004AB12718214D3F0113
S11311F001263D448E40A3B305F1C0652E60251839
S11312002D0105F18045072905F5204519D88F00E2
S11312106E684FF00F0C0CFA07FC26EA0C0602FA73
S113122007F73E436E6052B90444124A2401012078
S1131230224400FA01F1C3B902F180621160F0BCEA
S1131240704701F18046083EAF68B6004FF00F0CBE
S11312500CFA06FC27EA0C0702FA06F63E43AE60D7
S1131260E1E705F180652E60C9E702F1C062F0BCD8
S1131270116070470CA0004038B5154D154C284638
S11312800421FFF707FB28460121FFF77DF8002220
S113129011460120FFF76EFA002211460520FFF7E0
S11312A069FA012211460020FFF764FA2046022160
S11312B0FFF7F0FA20460121FFF766F801210648FE
S11312C0FFF762F801210548BDE83840FFF75CB834
S11312D04041050002001E0000250A0000350A00F6
S11312E010B500210520FFF76DFF042211460023ED
S11312F00520FFF777FF00210520FFF763FF052195
S1131300084600230422BDE81040FFF76BBF00BF6E
S1131310F0B5244C244F94E80F008BB0103401AE88
S113132086E80F000FCC05AD0FC522682A801F4B3D
S113133001227A64DB6C1B0E31D11D491D484AF62B
S1131340E8520A60026842F0040202600B601A4A22
S1131350136843F400531360184A136A23F44413C4
S113136043F4881313623046FFF79CFE05A8FFF789
S1131370E5FB04211120FFF78DFA0022114603201A
S1131380FFF7F8F9FFF778FFFFF7AAFF0C480D49BC
S113139010222023026003600A600B60FAE7012B2D
S11313A0DAD1D4E79C14000000000E40B081E00FB5
S11313B090310E4098310E4064310E4000400E4092
S11313C0FCA00044FCA0004608B5074B044613B13A
S11313D00021AFF30080054B1868836A03B1984776
S11313E0204600F031F800BF00000000C0140000E7
S11313F070B50D4E0D4CA41BA4100025A54209D1B7
S11314000B4E0C4C00F022F8A41BA4100025A5429E
S113141005D170BD56F8253098470135EEE756F8EA
S1131420253098470135F2E774000020740000204D
S1131430740000207800002002440346934200D147
S1131440704703F8011BF9E7FEE700BFF8B500BFDA
S1131450F8BC08BC9E467047F8B500BFF8BC08BC91
S11314609E4670470403020B050C00000302010AA8
S11314700302060A40787D0100000000005A62025F
S113148000010000C0CF6A0002000000809FD50068
S113149002010000002D31010202000000020807D1
S11314A005000A00C8000000FFFF01000100000061
S11314B0A00068010A200706020A040700000000D1
S10B14C01400002000000000EC
S10B14C884ECFF7F0100000029
S11314D0C0EA2101005A6202C0EA21010080000032
S11314E0C0EA21010000000000000000000000002C
S11314F000000000000000000000000000000000E8
S113150000000000000000000000000000000000D7
S113151000000000000000000000000000000000C7
S113152000000000000000000000000000000000B7
S113153000000000000000000000000000000000A7
S10F154000000000310100000D0100005B
S90301C13A
