:1000000000000420DD0100000902000009020000D8
:1000100009020000090200000902000009020000B4
:1000200009020000090200000902000009020000A4
:100030000902000009020000090200000902000094
:100040000902000009020000090200000902000084
:100050000902000009020000090200000902000074
:100060000902000009020000090200000902000064
:100070000902000009020000090200000902000054
:100080000902000009020000090200000902000044
:100090000902000009020000090200000902000034
:1000A0000902000009020000090200000902000024
:1000B0000902000009020000090200000902000014
:1000C0000902000009020000090200000902000004
:1000D00009020000090200000902000009020000F4
:1000E00009020000090200000902000009020000E4
:1000F00009020000090200000902000009020000D4
:1001000009020000090200000902000010B5054CB8
:10011000237833B9044B13B10448AFF300800123B3
:10012000237010BD80000020000000005415000066
:10013000084B10B51BB108480849AFF300800848C8
:10014000036803B910BD074B002BFBD0BDE810407E
:10015000184700BF00000000541500008400002074
:100160007C00002000000000154B002B08BF134B43
:100170009D46A3F5803A00218B460F461348144A4A
:10018000121A01F09FF90F4B002B00D098470E4B2D
:10019000002B00D098470020002104000D000D48DE
:1001A000002802D00C48AFF3008001F065F9200070
:1001B000290001F0E7F801F04BF900BF000008004A
:1001C000000004200000000000000000800000206B
:1001D000A800002000000000000000000648804742
:1001E0000649074A074B9A42BEBF51F8040B42F832
:1001F000040BF8E7FFF7B8FF950200006015000058
:100200000000002080000020FEE700BF004870478B
:10021000005A62020F4BD3F8943003F00703032B0C
:1002200014D0042B0FD0022B0AD00B4B1868094BAB
:10023000D3F80031C3F304230133B0FBF3F070476C
:10024000064B1868F3E7064B1868F0E74FF40040D8
:10025000EDE700BF00400E400C000020040000202D
:100260000000002008B5FFF7D5FF054B054AD3F87D
:100270000831C3F308230133B0FBF3F0106008BD6D
:1002800000400E4008000020014B1868704700BF76
:1002900004000020044B054A9A60D3F8882042F4F9
:1002A0007002C3F88820704700ED00E000000000F5
:1002B0004FF40040704700BF4FF47A70704700BFA2
:1002C000014B1868704700BF00000020F0B4114BCC
:1002D000114D5B68C9B22A46002314798C4202F1A1
:1002E00008020CD00133052BF7D14FF04071094AB9
:1002F000536823F040730B435360F0BC704755F8CC
:100300003340054F84424FEAC306EBD33E44737932
:100310001906ECE700000E400415000038B5074C44
:1003200041F67133256C2364FFF770FF0021FFF75E
:10033000CDFF0DB10023236438BD00BF00000E4087
:100340000C4A0D4BD2F89010516A21F0300141F067
:10035000100110B45162146BC0F3C3110331234078
:100360000F2928BF0F21034343EA017313635DF88C
:10037000044B704700400E4000F8FF0F38B5054CA5
:1003800041F67133256C2364FFF7A0FF0DB1002304
:10039000236438BD00000E40C0F30323013B30B49A
:1003A000092B13D8DFE803F0251D121221272A128A
:1003B0000523144D4FF48034134AD2F84431DB073F
:1003C000C0F3043004D528448000016030BC70477D
:1003D000D2F840311C42F6D0D2F840311C42F7D15D
:1003E000F1E70A4DC0F30430EDE7094DFAE7094D96
:1003F000F8E7094DF6E7094D0124DDE7084D102423
:10040000DAE700BF8007F21000400E400006F2104D
:100410008005F210800AF2100000F2100007F210BE
:100420004007F21000F00F000138072847D8DFE836
:1004300000F0121D3346283E4604264BD3F85C31AB
:1004400003F03003202B40D0302B40D0102B0CBFBA
:100450000720012070471F4BD3F8943003F00703A7
:10046000023B052B2FD81C4AD05C7047194BD3F8A0
:10047000803003F00703013B032B22D8174AD05CDE
:100480007047144BD3F8883003F00703013B032B6C
:1004900017D8134AD05C70470E4BD3F8843003F062
:1004A0000703013B032B0CD80E4AD05C7047094B65
:1004B0001B6F13F0010F14BF0920072070470020A5
:1004C00070470120704705207047042070470820BE
:1004D000704700BF00400E40F0140000F814000008
:1004E00000150000FC14000010B50446FFF79AFF49
:1004F0001E4B9C422FD01E4B9C4226D01D4B9C4233
:100500001DD00138032803D8DFE800F01511042BB3
:10051000002010BDFFF7A6FE174BD3F80021C2F351
:100520000062013201239340B0FBF3F010BDBDE83F
:100530001040FFF7C5BEBDE81040FFF7B9BE0E4B37
:10054000D3F8800000F00700DBE70B4BD3F88800FE
:1005500000F00700D5E7084BD3F8840000F007004F
:10056000CFE7BDE81040FFF7A7BE00BF03002000A3
:100570000500240002001E0000400E4000F4781028
:10058000B0F5A01F08B500F098801BD9B0F5001F8A
:1005900033D054D9B0F5381F34D066D9B0F5401FE8
:1005A0006BD0B0F5481F1AD15B48FFF73BFF072817
:1005B00042D0082800F0A580042810D1BDE80840EA
:1005C000FFF762BEB0F5202F13D00AD9B0F5602F27
:1005D0002DD0B0F5801F2FD0B0F5402F1CD00020BB
:1005E00008BDB0F5003F7DD0B0F5802F6FD000285A
:1005F000F5D1BDE80840FFF70DBE4848BDE808400A
:10060000FFF772BF4648FFF76FFF464BD3F8203124
:10061000C3F30113D84008BDFFF7FCFD414BD3F8ED
:100620001431C3F304230133B0FBF3F008BD3E489B
:10063000FFF7F8FE072860D13C4B186808BDB0F5FD
:10064000D01F2DD0B0F5F01F25D0B0F5B01FC6D10A
:100650003348FFF749FF334BD3F82021012302F041
:100660000F029340B0FBF3F008BDB0F5101FB6D1F8
:100670002F48BDE80840FFF737BF2848FFF734FF91
:10068000284BD3F82821C2F30122043201239340DE
:10069000B0FBF3F008BD2248BDE80840FFF724BFD7
:1006A0001E48FFF721FF1F4BD3F828210123C2F377
:1006B00001129340B0FBF3F008BD1D48FFF714FF93
:1006C000184BD3F8303103F00303D84008BDFFF7CF
:1006D000A1FD144BD3F80C31C3F308230133B0FB55
:1006E000F3F008BDFFF796FD0E4BD3F80831C3F3C6
:1006F00008230133B0FBF3F008BD09287FF46FAF86
:1007000077E7FFF787FD074BD3F80031C3F30423E6
:1007100003FB000008BD00BFB8003200030020004A
:1007200002001E0000400E4006000E0010000020D7
:1007300005002400144B5B6A13F0300F10B408D08E
:1007400020291DD030294FF4800404D019B10F4A5C
:1007500003E04FF480044FF440020B49D1F890308D
:10076000094813409342F9D134B1D0F8A0005DF8A4
:10077000044BC0F38020704701205DF8044B7047A4
:1007800000244FF40002E8E700400E40FF33E10789
:10079000F8B504282AD8DFE800F0484F03542A00AF
:1007A00000292DD10420082303253F490B66D1F8E9
:1007B00090301842FBD1CAB101223B49AA40D1F87E
:1007C00090301A42FBD1F8BD3849214489000027F6
:1007D000354B1E660B68002BFCD03AB1334C2C44D1
:1007E000A4002368002BFCD002282FD0F8BD2023C2
:1007F0001026042405250029E6D10120A040D4E7D5
:10080000294B596A11F0300F3AD12949C96B596AFD
:10081000C90744D55C6A274924F0300444F0100429
:100820005C62042603250127D2E74FF400734FF4DE
:10083000807608240925DEE7802340260624072544
:10084000D9E70126354602230024D4E7002FCDD076
:10085000154A536A13F0010117D1FFF76BFF124DD0
:10086000D5F89C70022000210122FFF791FFC7F309
:100870000A00FFF765FD2E662368002BFCD0F8BD4B
:100880000C49042603250027A2E720234FF48061AA
:10089000C2F8A81019465366FFF74CFFDFE7054979
:1008A00004260325012793E700400E408004F21040
:1008B00000300E400812C8431128F8B50C460FD07E
:1008C00000F00F000138072809D8DFE810F03601E2
:1008D0006900670008004C00430008002D00F8BDC7
:1008E000042900F02381052900F086800025023CC0
:1008F0000A2CF4D801A353F824F000BF970A000093
:10090000110A00009D0A0000B70A0000DF0800007D
:10091000DF080000DF080000DF080000DF0800003B
:10092000CF0A00001B0B00004C1E072CD7D801A3D8
:1009300053F824F0E70A0000DF080000DF08000099
:10094000FB0A0000DF080000DF0800000D0B0000BC
:10095000090B0000072900F0E580092957D1884BD1
:1009600001221A67F8BD874D013C092CB7D801A3B5
:1009700053F824F0A5090000AB090000EB090000C2
:10098000DF080000DF080000BD090000DF080000EC
:10099000DF080000DF080000B90900007A4DE3E736
:1009A0007A4DE1E700232B60F8BD01210A460020C3
:1009B000FFF7EEFE0223F6E70423F4E7FFF752FC0D
:1009C000734B984200F2868000200146714B6C4ABE
:1009D0001960D2F80031704923F08073034301207D
:1009E000C2F8003103230860DDE70120014602461A
:1009F000FFF7CEFE0123D6E7684A694B15689D4292
:100A00007FF674AF2846002100F0F4F96FE7F8BDD7
:100A10000120032401210A46FFF7BAFEFFF77EFCFE
:100A20001DB1604A1368002BFCD1554B5E485C67D2
:100A3000FFF7A4FD564B984271D95C4B01219842B7
:100A400094BF4FF080704FF00070524B4C4A1960C9
:100A5000D2F8003123F080731843C2F80001FFF789
:100A600001FC504B1C68002CFCD1514B514E596875
:100A7000376C41F67133C1F301413364FFF726FC53
:100A800007B13464002D7FF42AAF28460121BDE868
:100A9000F84000F0AFB900200424BBE73D4B384AD2
:100AA00001211960D2F80031022043F08073C2F8AE
:100AB00000310446AEE7374B314A01241C60D2F8BE
:100AC000003143F08073C2F800310320A2E7032015
:100AD00005249FE7354B0121984294BF4FF0807069
:100AE0004FF0007072E70021254AD2F85C3123F004
:100AF00030030B43C2F85C31F8BD01210A460220E5
:100B0000FFF746FE2021EFE73021EDE701210A46FD
:100B10000420FFF73DFE1021E6E707247EE70020D2
:100B2000014692E7164B00221A67F8BDFFF7ACFBAF
:100B3000054600287FF466AFD8E68C1E00250A2CF7
:100B40003FF6CDAE01A353F824F000BF970A000092
:100B5000110A00009D0A0000B70A0000DF0800002B
:100B6000DF080000DF080000DF080000DF080000E9
:100B7000CF0A0000790B00000724FFF7CFFB54E7F2
:100B800000400E4088400E4084400E4080400E40A1
:100B90000048E8014000C8430816C8430C00002084
:100BA000002D3101C800C64300250A000090D00383
:100BB00000300E4000000E40F8B504461120FFF74B
:100BC00031FC022000210122FFF7E2FD1748277CBB
:100BD000416A174D2678A288E38821F00101022F8F
:100BE00008BF41F0010141622E60617A41EAC221F1
:100BF000C162016B257AA27A01F07F610A43E91C88
:100C000042EAC3220F2942EAC51328BF0F2143EA53
:100C100001730363A17B637BE27B247B090141EACF
:100C20000333134343EA04434363F8BD00400E40DB
:100C3000A004C84342EA032340F2011293425BD06E
:100C4000B3F5817F14D340F2012293424BD030D9C7
:100C5000B3F5407F24D040F2013293423ED12B4B7A
:100C6000D3F878311A0EC3F3074303600A60704764
:100C7000012B2AD00BD3B3F5807F2FD1234BD3F890
:100C80006C311A0EC3F3074303600A6070471F4BB1
:100C9000D3F86C31C3F30722DBB203600A607047FC
:100CA0001A4BD3F870311A0EC3F3074303600A607E
:100CB0007047B3F5007F11D1144BD3F87031C3F3F3
:100CC0000722DBB203600A607047104BD3F874311F
:100CD000C3F30722DBB203600A60704700221346A9
:100CE00003600A607047094BD3F87831C3F30722D9
:100CF000DBB203600A607047044BD3F874311A0EFC
:100D0000C3F3074303600A60704700BFB081E00F80
:100D10001B4BD3F8803103282DD8DFE800F02729BA
:100D200010021B0E79B91B0313F4702F23D1154940
:100D3000CA6E22F470421343CB6601207047C3F39E
:100D400007430029EFD0012917D11B0313F4702F9B
:100D500011D110B40B4CD4F8EC2022F470421343A0
:100D60000846C4F8EC305DF8044B7047DBB2D9E7B5
:100D7000C3F30723D6E7002070470120704700BF68
:100D8000B081E00F00300E40F8B5174B04460D4619
:100D9000D3F80031FFF73EFA144A06461368002BD9
:100DA000FCD1134F7B68C3F301439C420CD0022C4F
:100DB00011D0C4F10202102393403B611DB10B4AD4
:100DC0001368002BFCD104B1F8BD30462146BDE8C4
:100DD000F840FFF7D3BA30462146FFF7CFFA102389
:100DE0003B61002DF0D0EAE700400E40C800C6434A
:100DF00000300E4010B5104B82B0D3F8004158B10E
:100E00000E4B1B7813B10E4B98420ED9002002B046
:100E1000BDE81040FFF7B8BF0191FFF7FBF9C4F33D
:100E2000042404FB00000199EAE7022002B0BDE8B7
:100E30001040FFF7A9BF00BF00400E40A0000020F7
:100E4000FF2C31011E498B6F1D4ADB07FBD4136C4D
:100E500013F003031CD01B4A0121834211601CD0F4
:100E6000032B02D1431E012B18D915498A6F144B4D
:100E7000D207FBD41A6C22F0030202431A649A6F61
:100E8000D207FCD400300F4B18BF01201860704708
:100E90000028E7D10B4B18607047704708494FF4A2
:100EA0000023CB628A6F064BD207FBD41A6C22F068
:100EB000030242F001021A645A6A1103FCD5D4E716
:100EC00000300E40B40AC6432DE9F04FA0F5E164AE
:100ED00089B00023B4F5966F0293039304930593AE
:100EE000069307936CD8B0F5E16F94BF00250125F8
:100EF000002D69D14A4BD3F86831C3F30724DBB224
:100F0000079404934FF4167B4FF49669DFF814A10D
:100F10000191DAF84C60C6F301760446334602A824
:100F200005A990462A46FFF785FEDAF8EC70C7F36C
:100F300001273B4603A806A92A46FFF77BFEDDF8FA
:100F400010C0079B02980090C9EB0404CCEB03038C
:100F50000798DDF814E00699039A03FB04F3B3FB4A
:100F6000FBF3634498422BD39C4529D8C2EB01097B
:100F700009FB04F9B9FBFBF99144494520D34A45E3
:100F80001ED80099C1EB0E0202FB04F4B4FBFBFB7C
:100F90008B44DE4514D3594512D8B8F1000F0BD05D
:100FA000DAF85C2022F4FE4222F0020242EA032335
:100FB00043EA4503CAF85C30019B93B9012000E085
:100FC000002009B0BDE8F08F154BD3F868311C0E36
:100FD000C3F30743079404934FF4966B4FF4E1690E
:100FE00094E730460021FFF793FE0028E8D038460A
:100FF0000121FFF78DFE0028E2D00A4A536ED94541
:1010000038BFD94623F4FF7323F00103B9F1E70F8A
:1010100028BF4FF0E7092B4343EA49035366D0E763
:10102000B081E00F00300E403A4B1A6FD96CC907FF
:1010300030B402F0070241D5012A50D913285BD9F8
:10104000143813288CBF4FF47F424FF4EE42314CDA
:101050003148E36C314D23F47F431343E364E16C87
:101060000288E06CC1F303210131283202EB520205
:1010700001EB8103B2FBF3F3013B072B20F0EE60A1
:1010800028BF072340F4801242EA0363B5F9002029
:10109000E364002A10DB206D28324B0002EB520281
:1010A00003EB5103B2FBF3F3072B20F0700028BFD2
:1010B000072340EA0313236530BC7047D96CCD0782
:1010C00005D4012A1BD9DB6C6FF0FF02BFE7DB6C94
:1010D000DC0701D5012A08D96FF0FF02B7E7DA6C07
:1010E000D1070CD5DB6CDB07F6D527288CBF4FF476
:1010F0007F424FF4EE42AAE74FF44C52A7E709288B
:10110000FAD90A3809288CBF4FF47F424FF4EE42D7
:101110009DE700BF00300E40A20000209C00002090
:10112000054A064B06491B68136F23F00703184353
:1011300010670888FFF778BF00300E408009C6436B
:10114000A4000020384B022270B59A639B6B03F019
:101150000F03934202D00025284670BDC3884A2B56
:1011600055D9B3F5FA7F5CD340F6C315AB4294BFB3
:101170004FF000554FF040552B49B0F90C60CA6C48
:1011800022F0405323F00103002EA8BF43F00103D7
:101190002B43CB64D1F8EC3043F44073C1F8EC300E
:1011A000CB6E044643F080732048CB66006800286D
:1011B0002FD1FFF7B5FF1E4B1E491F4EA088258972
:1011C000A2891A8030800D80FFF72EFFA37B23B306
:1011D000012B02D1144B194A9A6501210A466088F5
:1011E000FFF772FE05460028B5D00F4A6078D36B32
:1011F00043F48063D363FFF725FEA37A104AA3F17B
:101200002003B3FA83F35B091360284670BD002501
:10121000B2E70420FFF784FFCDE7034B094A9A6544
:10122000DBE74FF08055A7E700300E408009C6434A
:101230009C000020A2000020A4000020372110B74D
:101240009407C6437740205700EB4000000100F1AF
:10125000804000F5204000F1806300F1C0604FF055
:1012600001121A6001607047F0B545003AB12E18BE
:101270009BBB1C4C3601344401268E4026602C1842
:10128000240104F18044072904F5204415D84FEACD
:10129000810E67680F2606FA0EF627EA060702FA9D
:1012A0000EF63E4366603AB92844C3B90D4B0001BF
:1012B000034401228A401A60F0BD01F18046083ED5
:1012C000A768B6004FF00F0E0EFA06FE27EA0E07CB
:1012D00002FA06F63E43A660E5E7034CCAE7024B76
:1012E000E5E700BF0CA000440CA0004638B5154D42
:1012F000154C28460421FFF7DFFA28460121FFF7A5
:101300004BF800210A460120FFF742FA00210A4665
:101310000520FFF73DFA01210A460020FFF738FAC1
:1013200020460221FFF7C8FA20460121FFF734F8D2
:1013300006480121FFF730F805480121BDE8384093
:10134000FFF72AB84041050002001E0000250A00F0
:1013500000350A0010B505200021FFF775FF0421B4
:101360000A4600230520FFF77FFF05200021FFF735
:101370006BFF0520014604220023BDE81040FFF763
:1013800073BF00BFF0B5284C284F6168A268E368BE
:101390002068274E8BB001AD0FC554F8100FE368DD
:1013A0006168A268258A05AC0FC4012325807B648F
:1013B000F36C1B0E34D11F491F484AF6E8520A60ED
:1013C000026842F0040202600B601C4A136843F496
:1013D000005313601A4A1B4C136A23F4441343F45A
:1013E0008813136201A8FFF7ADFE05A8FFF7E4FB21
:1013F00011200421FFF760FA00210A460320FFF7BD
:10140000C7F9FFF773FFFFF7A5FF0F481021202250
:101410000E4B013BFDD12160226001600260F7E7C5
:10142000012BD7D1D1E700BF2C15000000000E40E2
:10143000B081E00F90310E4098310E4064310E4083
:1014400000400E40FCA00044FCA0004660E31600F3
:1014500008B5074B044613B10021AFF30080054BDC
:101460001868836A03B19847204600F033F800BF3C
:10147000000000005015000070B50E4B0E4CE41A31
:10148000A41000251E46A54204D056F825309847E2
:101490000135F8E700F020F8084C094BE41AA410D5
:1014A00000251E46A54204D056F825309847013540
:1014B000F8E770BD74000020740000207800002060
:1014C0007400002002440346934202D003F8011B3B
:1014D000FAE77047FEE700BFF8B500BFF8BC08BCEC
:1014E0009E467047F8B500BFF8BC08BC9E467047E2
:1014F0000403020B050C00000302010A0302060AA2
:101500000302010A40787D0100000000005A6202D7
:1015100000010000C0CF6A0002000000809FD500DB
:1015200002010000002D3101020200000002080744
:1015300005000A00C8000000FFFF010001000000D4
:10154000A00068010A200706020A04070000430001
:0815500014000020000000005F
:0815580010ECFF7F0100000010
:1015600000800000005A6202C0EA2101C0EA2101A5
:10157000C0EA21010000000000000000000000009F
:10158000000000000000000000000000000000005B
:10159000000000004E1500000000000000000000E8
:1015A000000000000000000000000000000000003B
:1015B000000000000000000000000000000000002B
:1015C000000000000000000000000000000000001B
:1015D00000000000310100000D01000000000000CB
:04000003000001DD1B
:00000001FF
