S01100006D6F746F7220746573742E733337D2
S113000000000420DD0100000902000009020000D4
S113001009020000090200000902000009020000B0
S113002009020000090200000902000009020000A0
S11300300902000009020000090200000902000090
S11300400902000009020000090200000902000080
S11300500902000009020000090200000902000070
S11300600902000009020000090200000902000060
S11300700902000009020000090200007D2A0000B4
S11300800902000009020000090200000902000040
S11300900902000009020000090200000902000030
S11300A00902000009020000090200000902000020
S11300B00902000009020000090200000902000010
S11300C00902000009020000090200000902000000
S11300D009020000090200000902000009020000F0
S11300E009020000090200000902000009020000E0
S11300F009020000090200000902000009020000D0
S113010009020000090200000902000010B5054CB4
S1130110237833B9044B13B10448AFF300800123AF
S1130120237010BD8000002000000000E42D0000BA
S1130130084B10B51BB108480849AFF300800848C4
S1130140036803B910BD074B002BFBD0BDE810407A
S1130150184700BF00000000E42D000084000020C8
S11301607C00002000000000154B002B08BF134B3F
S11301709D46A3F5803A00218B460F461348144A46
S1130180121A02F0F1FD0F4B002B00D098470E4BD2
S1130190002B00D098470020002104000D000D48DA
S11301A0002802D00C48AFF3008002F0B7FD200015
S11301B0290002F0FFFC02F09DFD00BF00000800D2
S11301C00000042000000000000000008000002067
S11301D0AC0000200000000000000000064880473A
S11301E00649074A074B9A42BEBF51F8040B42F82E
S11301F0040BF8E7FFF7B8FFED020000F02D000054
S11302000000002080000020FEE700BF80B582B01F
S113021000AF00F027F878600A4BD3F808210A4BA6
S113022013401B0A3B603B6801337A68B2FBF3F36B
S11302307B60064A7B6813607B6818460837BD46B6
S113024080BD00BF00400E4000FF010008000020F8
S113025080B400AF024B1846BD465DF8047B70477E
S1130260005A620280B483B000AF164BD3F89430C6
S113027003F00703032B08D0042B02D0022B08D071
S11302800BE0114B1B687B600BE04FF400437B6079
S113029007E00E4B1B687B6003E00D4B1B687B6023
S11302A000BF084BD3F8003103F4F8531B0A0133A1
S11302B07A68B2FBF3F318460C37BD465DF8047B4D
S11302C0704700BF00400E400400002000000020E2
S11302D00C00002080B400AF034B1B681846BD46D9
S11302E05DF8047B704700BF0000002080B400AFBD
S11302F0074B084A9A60064A054BD3F8883043F402
S11303007003C2F88830BD465DF8047B704700BFB7
S113031000ED00E00000000080B400AF4FF40043A3
S11303201846BD465DF8047B704700BF80B400AF3B
S11303304FF47A731846BD465DF8047B704700BFDE
S113034080B400AF034B1B681846BD465DF8047BC0
S1130350704700BF0400002080B487B000AFF8608D
S1130360B9607A60FB6803F10473DA00BB68134474
S11303709B007B617B697A681A601C37BD465DF817
S1130380047B704780B485B000AF786039607B68C7
S113039003F1C063FB60FB683A681A601437BD461A
S11303A05DF8047B704700BF80B485B000AF78600F
S11303B039607B6803F18063FB60FB683A681A600C
S11303C01437BD465DF8047B704700BF80B584B028
S11303D000AFF860B9607A60F868B968FFF7E4FFC5
S11303E0F8687968FFF7CEFF1037BD4680BD00BFBF
S11303F080B489B000AF78600B46FB701346BB70C5
S1130400BB78002B04D010237B61644BBB6103E0F9
S113041000237B61624BBB617B685A6BBB691340F1
S11304203B610023FB617B685E4A934205D15E4BCE
S1130430FB60FB78022B40D000E0A9E0022B04DC37
S1130440002B09D0012B1DD098E0062B6CD0812BFA
S11304507BD0032B4AD091E0FB681B6803F4FE4376
S1130460FA691343FB61FB681B6803F00F03FA6925
S11304701343FB61FB681B6803F0F003FA69134341
S1130480FB617EE0FB681B6803F0FE431B0E1B024E
S1130490FA691343FB61FB681B6803F470231B0CAC
S11304A0FA691343FB61FB681B6803F470031B0DBB
S11304B01B01FA691343FB6163E0FB6804331B68A7
S11304C003F4FE43FA691343FB61FB6804331B68BE
S11304D003F00F03FA691343FB61FB6804331B68E1
S11304E003F0F003FA691343FB614AE0FB68043349
S11304F01B6803F0FE431B0E1B02FA691343FB61E6
S1130500FB6804331B6803F470231B0CFA69134360
S1130510FB61FB6804331B6803F470031B0D1B01B0
S1130520FA691343FB612CE0FB6808331B6803F092
S11305300F03FA691343FB61FB6808331B6803F07C
S1130540F003FA691343FB611BE0FB6804331B6887
S113055003F4FE43FA691343FB61FB6804331B682D
S113056003F00F03FA691343FB61FB6804331B6850
S113057003F0F003FA691343FB6102E00023FB611B
S113058000BF7B69FA699A403B691A437B685A63E6
S11305902437BD465DF8047B704700BFFFFF008031
S11305A00080FFFF002000401082E00F80B588B07B
S11305B000AF786039603B68DB78FB76FB7E002B0C
S11305C006D12B48002100F0F1F80346FB760EE03B
S11305D07B681B6803F08003002B08D124480021AA
S11305E000F0E4F84FF4FA40002100F0DFF87B68F3
S11305F00A229A603B681B781A063B689B781B04A6
S113060003F4FE031A43FB7E1B0203F4FE4313436D
S11306103A6852781343FB613B681B79002B03D083
S1130620FB6943F01003FB617B68FA691A607A681E
S11306303B685B791046C0211A46FFF7C7FE7B680A
S11306401B6803F08003002B0FD00A4B7B6100234F
S11306503B61786900F0BAFBF8607B68064A934214
S113066003D1064800F0B2FB38612037BD4680BD97
S11306700024F400B80032000020004000D204003E
S113068080B584B000AF786039607B6802229A60DC
S11306903B689B78786819460022FFF7A9FE3B68FF
S11306A05B781A063B681B791B021A433B685B792B
S11306B01B041A433B68DB78DB001343FB603B6895
S11306C0DB79002B03D0FB6843F00053FB603B68ED
S11306D01B7A002B03D0FB6843F00403FB603B68E8
S11306E09B79002B03D0FB6843F00203FB603B685B
S11306F05B7A002B03D0FB6843F00103FB603B688B
S11307001B79F32B0DD13B689B78002B09D13B68F7
S11307105B78032B05D8FB6823F0706343F0806398
S1130720FB603B689B78DBB25BB2002B04DAFB68AE
S113073043F0E003FB6005E03B689B785B01FA68EB
S11307401343FB607B68FA681A617B685B6923F476
S1130750F21323F00703FB603B689B78DBB25BB2C8
S1130760002B06DA3B689B7823F08003FA68134376
S1130770FB603B681B785B04FA681343FB603B68CF
S1130780DB7A002B03D0FB6843F48043FB607B6877
S1130790FA685A617A683B689B7A104602211A46C5
S11307A0FFF7DAFD1037BD4680BD00BF80B584B0C9
S11307B000AF786039607B68164A934202D9154BC2
S11307C07B6006E07B68B3F5FA4F02D24FF4FA433C
S11307D07B603B68002B03D10F4800F0F7FA3860C8
S11307E03A687B6813445A1E7B68B2FBF3F3FB60E0
S11307F0FB68002B02D0FB68013BFB60FB687F2B8E
S113080001D97F23FB60FB68DBB218461037BD4675
S113081080BD00BF0024F4004041050080B487B0CF
S113082000AFF860B9607A60FB6803F10473DA0022
S1130830BB6813449B007B617B697A681A601C3730
S1130840BD465DF8047B704780B485B000AF786026
S113085039607B6803F10473DA003B6813449B003E
S1130860FB60FB681B6818461437BD465DF8047BC3
S1130870704700BF80B483B000AF78607B6801220A
S113088002FA03F318460C37BD465DF8047B704743
S113089080B500AF00BF04481221FFF7D5FF03461F
S11308A0002BF8D180BD00BF04300E4080B500AFEE
S11308B0FFF7EEFF034B5B6803F440331B0CDBB222
S11308C0184680BD00300E4080B584B000AF78601B
S11308D00123FB607B68124A934204D80023FB6027
S11308E00023BB6008E07B680E4A934202D80123D0
S11308F0BB6001E00223BB600B481021FA68FFF7DC
S11309008DFF0949084BD3F8003123F08072BB688E
S11309101B061343C1F800311037BD4680BD00BF2C
S11309200048E8010090D00300400E4080B483B03A
S113093000AF054B1B687B607B6818460C37BD46CF
S11309405DF8047B704700BF1000002080B582B0C2
S113095000AFFFF787FC7860064BD3F8003103F44F
S1130960F8531B0A01337A6802FB03F3184608376D
S1130970BD4680BD00400E4080B582B000AF0D483A
S113098000F02CFB0346FB70FB78072B05D0092BEA
S113099007D1FFF767FC786006E0FFF7C7FF7860D0
S11309A002E000237B6000BF7B6818460837BD4621
S11309B080BD00BF06000E0080B584B000AF786033
S11309C07B68002B1CD11B4800F008FB0346FB721C
S11309D000BFFB7A013B072B23D801A252F823F076
S11309E0050A0000230A0000230A0000130A00007D
S11309F0230A0000230A00000B0A00001B0A00005F
S1130A00002312E00023FB600EE0FFF78FFFF86085
S1130A100AE0FFF75FFCF86006E0FFF797FFF86075
S1130A2002E00023FB6000BFFB6818461037BD4698
S1130A3080BD00BFB800320080B485B000AF7860DC
S1130A4039601D4B5B6803F04073FB600023BB609F
S1130A5013E01A4ABB68DB0013441A793B68DBB223
S1130A609A4207D1154ABB6852F833207B689A42F0
S1130A7000D305E0BB680133BB60BB68042BE8D935
S1130A80BB68052B02D10323FB6005E00B4ABB685E
S1130A90DB0013445B79FB60FB681B06FB600649C3
S1130AA0054B5B6823F04072FB6813434B601437BB
S1130AB0BD465DF8047B704700000E40942D000095
S1130AC080B582B000AF0D4B1B6C002B14BF01230B
S1130AD00023FB71094B41F671321A64FFF7B8FB2E
S1130AE0034618460021FFF7A7FFFB79002B02D02D
S1130AF0024B00221A640837BD4680BD00000E4038
S1130B0080B584B000AF786039600C4B1B6C002B4F
S1130B1014BF01230023FB73084B41F671321A649E
S1130B2078683968FFF788FFFB7B002B02D0034B02
S1130B3000221A641037BD4680BD00BF00000E407D
S1130B4080B487B000AF78600F237B617B68033388
S1130B503B617B69FB60FA683B69934228BF13469B
S1130B60BB60BB681B07BB60BB6818461C37BD462F
S1130B705DF8047B704700BF80B400AF044B5B6A30
S1130B8003F030031B091846BD465DF8047B70472B
S1130B9000400E4080B483B000AF78600649064B35
S1130BA05B6A23F030027B681B0113434B620C37F2
S1130BB0BD465DF8047B704700400E4090B585B09B
S1130BC000AF78600023BB607B68354A934206D04F
S1130BD0344A934203D0344A934200D000E000BF29
S1130BE0786800F0FBF90346FB607B682C4A93426B
S1130BF00DD02C4A934211D02B4A934200D014E0DA
S1130C002A4BD3F8803003F00703FB600DE0274B39
S1130C10D3F8843003F00703FB6006E0234BD3F8DA
S1130C20883003F00703FB6000BFFB68042B2ED859
S1130C3001A252F823F000BF890C00004D0C000003
S1130C40550C0000650C00005D0C0000FFF764FB10
S1130C50B8601FE0FFF774FBB8601BE0FFF766FBAA
S1130C60B86017E0FFF7D2FA0446104BD3F800310E
S1130C7003F080731B0E01331846FFF7FBFD034698
S1130C80B4FBF3F3BB6005E00023BB6002E0002388
S1130C90BB6000BFBB6818461437BD4690BD00BF9B
S1130CA0030020000500240002001E0000400E4046
S1130CB080B483B000AF78600A4BD3F8443103F0BA
S1130CC00103002B00D007E000BF064BD3F84021FE
S1130CD07B681340002BF8D10C37BD465DF8047BCC
S1130CE0704700BF00400E4080B400AFBD465DF8C1
S1130CF0047B704780B400AFBD465DF8047B704749
S1130D0080B586B000AF78600B46FB7000233B6172
S1130D107B681B0A03F00F03013B092B44D801A293
S1130D2052F823F04D0D0000590D0000A90D0000EC
S1130D30A90D0000530D00005F0D0000690D0000B7
S1130D40A90D0000730D00007F0D0000184B7B619E
S1130D5018E0184B7B6115E0174B7B6112E0174BD1
S1130D607B6101233B610DE0154B7B6110233B61EB
S1130D7008E0144B7B614FF480333B6102E0124B7B
S1130D807B6100BF7B681B0B03F01F03FB603B69A7
S1130D90002B02D03869FFF78BFFFB787869F9687C
S1130DA01A46FFF73BFD00E000BF1837BD4680BD83
S1130DB000400E40B0400E40C0400E40E0400E40A7
S1130DC0E8400E40F0400E4050410E4080B584B0E3
S1130DD000AF78607B6803F47813B3F5A01F7DD06F
S1130DE0B3F5A01F1AD8B3F5202F50D0B3F5202F98
S1130DF008D8B3F5003F4ED0B3F5802F38D0002B80
S1130E0032D0D8E0B3F5602F00F0C880B3F5801F6E
S1130E1000F0C880B3F5402F4CD0CCE0B3F5001FF0
S1130E2000F08B80B3F5001F0AD8B3F5D01F00F093
S1130E308980B3F5F01F4CD0B3F5B01F5CD0BAE095
S1130E40B3F5381F6AD0B3F5381F04D8B3F5101FB3
S1130E5000F09F80AFE0B3F5401F00F08680B3F54B
S1130E60481F00F0A380A6E0FFF7FCF9F860A5E0B6
S1130E70FFF7F8F9F860544BD3F80C21534B1340A7
S1130E801B0A0133FA68B2FBF3F3FB6096E0FFF749
S1130E90E9F9F86092E0FFF7E5F9F8604A4BD3F816
S1130EA008214A4B13401B0A0133FA68B2FBF3F3DF
S1130EB0FB6083E0FFF7D6F9F860434BD3F81431B5
S1130EC003F4F8531B0A0133FA68B2FBF3F3FB6033
S1130ED074E03F48FFF772FEF8606FE03D48FFF7AB
S1130EE06DFEF860384BD3F8303103F003031A4633
S1130EF0FB68D340FB6061E03548FFF75FFEF860B4
S1130F00314BD3F8203103F00F031846FFF7B2FC3E
S1130F100246FB68B3FBF2F3FB604FE02C48FFF79B
S1130F204DFEF860284BD3F8203103F030031B0941
S1130F301A46FB68D340FB6040E02748FFF73EFEBB
S1130F40F8603BE02448FFF739FEF8601E4BD3F805
S1130F50283103F030031B091846FFF78BFC0246C7
S1130F60FB68B3FBF2F3FB6028E01B48FFF726FEA7
S1130F70F860154BD3F8283103F440731B0A04338B
S1130F801846FFF777FC0246FB68B3FBF2F3FB60FD
S1130F9014E01048FFF712FEF8600FE0FFF7ECFCD6
S1130FA0F8600BE0FFF7C2FCF86007E00020FFF7F1
S1130FB003FDF86002E00023FB6000BFFB681846F5
S1130FC01037BD4680BD00BF00400E4000FF010049
S1130FD002001E00050024000300200080B485B038
S1130FE000AF78600123FB737B6803F00F03BB60E1
S1130FF0BB68013B072B00F2C48001A252F823F026
S11310002110000077100000A710000083110000D9
S1131010ED1000001D1100008311000041110000BB
S11310205D4BD3F8943003F00703023B052B1ED825
S113103001A252F823F000BF5D1000005710000019
S113104051100000631000006F10000069100000D0
S11310500223FB730EE00323FB730BE00423FB73F7
S113106008E00B23FB7305E00C23FB7302E005236C
S1131070FB7300BF88E0484BD3F8803003F00703CC
S1131080022B06D0042B07D0012B08D10323FB73BA
S113109008E00223FB7305E00A23FB7302E001234B
S11310A0FB7300BF70E03C4BD3F8843003F00703BC
S11310B0013B032B16D801A252F823F0CD100000F7
S11310C0D3100000DF100000D91000000323FB73CD
S11310D00BE00223FB7308E00A23FB7305E00623FD
S11310E0FB7302E00123FB7300BF4DE02A4BD3F8EE
S11310F0883003F00703022B06D0042B07D0012B02
S113110008D10323FB7308E00223FB7305E00A23E1
S1131110FB7302E00123FB7300BF35E01E4B1B6F22
S113112003F00103002B04D0012B05D10923FB7329
S113113005E00723FB7302E00123FB7300BF23E0F8
S1131140154BD3F85C3103F03003102B0CD0102B6B
S113115002D8002B05D010E0202B08D0302B09D06A
S11311600BE00123FB730BE00723FB7308E004236C
S1131170FB7305E00823FB7302E00123FB7300BF4C
S113118002E00023FB7300BFFB7B18461437BD4607
S11311905DF8047B704700BF00400E4080B58AB004
S11311A000AF78600B46FB7003237B62032387F850
S11311B023300023BB6100237B617B68112B19D191
S11311C0FB78042B03D1FFF785F878610BE0FB78FB
S11311D0052B08D100F05AF90246A44B9A4202D9D1
S11311E000F054F978617B69002B03D07869002101
S11311F000F046FC7B6803F00F033B613B69013B55
S1131200072B00F2298101A252F823F02D120000CD
S113121021130000331300005914000025130000AB
S1131220C913000059140000E7130000FB78023BC7
S11312300A2B00F2138101A252F823F06912000074
S11312407512000081120000931200005D1400006A
S11312505D1400005D1400005D1400005D140000C6
S1131260A5120000B112000004237B62002387F85A
S1131270233023E003237B62012387F823301DE01E
S113128002237B62022387F823307948FFF71CFB93
S113129014E001237B62032387F823307448FFF7AB
S11312A013FB0BE005237B62032387F8233005E05F
S11312B007237B62062387F8233000BF97F8233087
S11312C0062B06D097F8233018460121012200F09E
S11312D05BF9FFF7F5FBFFF707FD7B69002B01D0F6
S11312E0FFF7D6FA634A7B6A53676348FFF76EFDDC
S11312F003461846FFF7E8FAFEF788FFF860FFF7A1
S1131300D5FA0346F8681946FFF7FAFB7B69002B08
S113131003D10020012100F0B3FBFFF7EBFCA2E0B6
S1131320564BBB61BB69002B01D0BB6900E0544B39
S1131330BB61BB69002B01D0BB6900E0514BBB61B1
S1131340FB78013B092B00F28B8001A252F823F0B9
S1131350791300007F1300008F1300006114000054
S1131360611400009F130000611400006114000068
S113137061140000BB1300000023FB6120E0002087
S11313800121012200F000F90223FB6118E0012091
S11313900121012200F0F8F80123FB6110E0FEF7BF
S11313A035FF03461846FFF78FFA3748022101221A
S11313B0FFF734FA0323FB6102E00423FB6100BF5F
S11313C0BB69FA691A604EE0FB78072B02D0092B3F
S11313D004D048E0274B00221A6703E0254B012282
S11313E01A6700BF3FE0FB78013B072B3AD801A204
S11313F052F823F015140000651400006514000071
S11314002B14000065140000651400001B14000078
S11314103B1400000023FB6112E00420012101229F
S113142000F0B2F80123FB610AE00220012101224D
S113143000F0AAF80223FB6102E00323FB6100BF72
S11314400C490C4BD3F85C3123F03002FB691B01CF
S11314501343C1F85C3106E000BF04E000BF02E0C2
S113146000BF00E000BF2837BD4680BD002D31011C
S11314700148E80100400E4000250A0080400E406B
S113148088400E4084400E40B0400E4080B400AF0F
S1131490034B1B681846BD465DF8047B704700BFCC
S11314A00C000020B0B584B000AF78601120FFF7C5
S11314B095FD02200021012200F066F87B685B782C
S11314C083F00103DBB2002B0ED07B689B7883F0A2
S11314D00103DBB2002B07D07B68DB7883F00103C8
S11314E0DBB2002B00D000BF0023FB607B681B7CB9
S11314F0022B01D10123FB602149214B5B6A23F0BC
S11315000102FB6813434B627B681B781D4808216A
S11315101A46FFF783F91A497B689B88DB027A68CD
S1131520527A1343CB62164D154B1B6B03F07F624B
S11315307B68DB88DB0213437A68927A1A437B6800
S11315401B7ADB0142EA03047B681B7A1846FFF727
S1131550F7FA034623432B6309497B685B7B1A0331
S11315607B689B7B1B0113437A68D27B1A437B689D
S11315701B7B1B0413434B631037BD46B0BD00BF38
S113158000400E4024400E4080B588B000AF0346B2
S1131590FB710B46BB7113467B71FB79042B00F284
S11315A0B88001A252F823F005160000F3150000DC
S11315B0CF150000BD150000E115000001237B617B
S11315C002233B610123FB610023BB6125E004236B
S11315D07B6108233B610323FB610223BB611CE0A5
S11315E010237B6120233B610523FB610423BB6142
S11315F013E040237B6180233B610723FB610623C7
S1131600BB610AE04FF480737B614FF400733B616C
S11316100923FB610823BB6100BFBB79002B5BD0AE
S11316200023FB73FB79022B11D1FFF7A5FA0346C4
S1131630002B0CD1394BDB6B0123FB73384B5B6AFA
S113164003F00103002B02D00120FFF7A3FA344A70
S11316507B69136600BF3348B969FFF7F5F80346A1
S1131660002BF8D07B79002B35D000BF2D48F969C9
S1131670FFF7EAF80346002BF8D0FB79022B2AD1B6
S1131680FB7B002B27D0264B5B6A03F00103002B66
S113169005D002202021012200F04AF903E00220B3
S11316A0002100F0FBF8022000F03EF8B8600220B0
S11316B000210122FFF768FF0220B96800F06EF8EC
S11316C0174A7B69136600BF1648F969FFF7BCF82F
S11316D00346002BF8D01DE0114A3B69136600BF96
S11316E00F4BD3F89030BA69012101FA02F213408A
S11316F0002BF5D17B79002B0CD000BF084BD3F81D
S11317009030FA69012101FA02F21340002BF5D15D
S113171000E000BF2037BD4680BD00BF00300E4052
S113172000400E4090400E4080B485B000AF0346A8
S1131730FB71FB79013B032B23D801A252F823F060
S113174051170000751700005D17000069170000AD
S1131750114B1B6AC3F30803FB6015E00E4B1B69B6
S113176003F07F03FB600FE00B4B9B6903F07F03E7
S1131770FB6009E0084BD3F89C30C3F30A03FB6019
S113178002E00023FB6000BFFB6818461437BD4627
S11317905DF8047B704700BF00400E4080B584B004
S11317A000AF03463960FB71FB79013B032B6AD818
S11317B001A252F823F000BFC91700004B18000023
S11317C0F7170000211800003B68C3F308033B60CF
S11317D000BF2F481A21FFF737F80346002BF8D132
S11317E02C492C4B1B6A23F4FF7323F001033A6842
S11317F013430B6248E03B6803F07F033B6000BF88
S113180023481821FFF720F80346002BF8D121497B
S1131810204B1B6923F07F023B6813430B6133E0C9
S11318203B6803F07F033B6000BF19481921FFF7B1
S11318300BF80346002BF8D11649164B9B6923F08D
S11318407F023B6813438B611EE0124BD3F8903048
S1131850104A104B5B6A23F0300343F010035362C9
S11318603B6803F4F063DB091846FFF769F9F86095
S11318700849084B1A6B084B13403A681A43FB6833
S113188013430B6300E000BF1037BD4680BD00BFAB
S113189040410E4000400E4000F8FF0F80B584B078
S11318A000AF03460A46FB711346BB71FFF764F9A8
S11318B00346002B03D14FF44003FB6016E0BB79D1
S11318C0202B04D0302B0AD0002B04D00BE04FF493
S11318D00003FB600AE04FF44003FB6006E04FF4B2
S11318E04003FB6002E0104BFB6000BF00BF0F4BE6
S11318F0D3F89020FB681A40FB689A42F7D1FB6842
S113190003F48003002B0AD0084BD3F8A03003F46F
S11319108063002B14BF01230023DBB200E001230A
S113192018461037BD4680BDFF33E10700400E4026
S113193080B582B000AF0346FB710B46BB71134602
S11319407B71FB79022B00D016E0BB79002B07D00A
S11319500C4B4FF48062C3F8A8200A4ABB79536643
S11319607B79002B07D0FA79BB7910461946FFF72B
S113197095FF034601E000BF012318460837BD4622
S113198080BD00BF00400E4080B400AF62B6BD46CB
S11319905DF8047B704700BF80B487B000AFF86087
S11319A0B9607A60FB6803F10473DA00BB6813441E
S11319B09B007B617B697A681A601C37BD465DF8C1
S11319C0047B704780B485B000AF786039607B6871
S11319D003F10473DA003B6813449B00FB60FB686B
S11319E01B6818461437BD465DF8047B704700BF7A
S11319F080B500AF00BF04481221FFF7E3FF0346A0
S1131A00002BF8D180BD00BF04300E4080B500AF7C
S1131A10FFF7EEFF034B5B6803F440331B0CDBB2B0
S1131A20184680BD00300E4080B483B000AF7860AB
S1131A30034A7B68D3620C37BD465DF8047B70476C
S1131A4000300E4080B400AF034B5B6A1846BD46BD
S1131A505DF8047B704700BF00300E4080B483B053
S1131A6000AF0346FB71FB79C3F102031A4610234E
S1131A70934018460C37BD465DF8047B704700BFA1
S1131A8080B584B000AF78600B46FB70154BD3F87B
S1131A90003103F4F8531B0A0133BB607B68002B4D
S1131AA007D1FEF7DFFB0246BB6803FB02F3FB60D2
S1131AB001E07B68FB600C4B1B78002B09D0FB68B2
S1131AC00A4A934205D8FB780220194600F010F820
S1131AD004E0FB780020194600F00AF81037BD46F0
S1131AE080BD00BF00400E40A4000020FF2C310147
S1131AF090B587B000AF03460A46FB711346BB712D
S1131B001A4BD3F8003103F4F8531B0A01337B61F9
S1131B10FEF7A8FB3861FFF779FF0346FB73FA7BF6
S1131B20FB799A4200D11EE03B697A6902FB03F318
S1131B30BB60FB79022B03D138690221FEF7E0FF79
S1131B400B4CFB791846FFF789FF03462361BB79E9
S1131B50002B01D0FFF74CFFFB79002B03D1386930
S1131B600021FEF7CDFF1C37BD4690BD00400E405E
S1131B7000300E4080B400AF01231846BD465DF826
S1131B80047B704780B582B000AF0C4A0B4BDB6E10
S1131B9043F08073D3660A480021FFF713FF78608F
S1131BA07B68002B03D0042000F0B4FC02E000208A
S1131BB000F0B0FC0837BD4680BD00BF00300E40C9
S1131BC04C300E4080B48BB000AF01237B627B6A43
S1131BD01B053B62314BDB6C03F470631B0AFB6136
S1131BE02F4B1B881A462E4B1B8828335B08134443
S1131BF003F12801FB695A1C13469B001344B1FBF3
S1131C00F3F3013BBB61BB697B6107233B613A6929
S1131C107B69934228BF1346BB61BB691B06BB614A
S1131C201E481E4BDB6C23F0EE62B9693B6A0B4322
S1131C301343C3641B4B1B881BB2002B28DB194BBB
S1131C401B88FB81FA89FB8928335B08134403F161
S1131C502802FB6901335900FB6901335B080B441B
S1131C60B2FBF3F3BB60BB687B6007233B603A685D
S1131C707B68934228BF1346BB60BB681B01BB60F3
S1131C800649064B1B6D23F07002BB6813430B65BA
S1131C902C37BD465DF8047B704700BF00300E4012
S1131CA09C000020A000002080B483B000AF7860C6
S1131CB00B467B807B689AB2044B1A80044A7B886B
S1131CC013800C37BD465DF8047B70479C000020F0
S1131CD0A000002080B483B000AF0346FB71FB7901
S1131CE0002B02D0012B04D007E0064B064A9A656C
S1131CF003E0044B054A9A6500BF0C37BD465DF806
S1131D00047B704700300E4077402057372110B7CE
S1131D1080B485B000AF0346FB710B46BB7113461C
S1131D207B712E4BD3F88031FB60BB79032B1FD81A
S1131D3001A252F823F000BF491D0000511D00000C
S1131D405D1D0000691D0000FB68DBB2FB6011E053
S1131D50FB6803F47F431B0AFB600BE0FB6803F49E
S1131D607F031B0CFB6005E0FB681B0EFB6001E0BE
S1131D7000232CE07B79002B11D1FB681B03FB6053
S1131D80FB6823F47043002B01D000231FE01449A7
S1131D90134BDB6E23F47042FB681343CB667B79F1
S1131DA0012B13D1FB681B03FB60FB6823F4704316
S1131DB0002B01D000230AE00949094BD3F8EC3089
S1131DC023F47042FB681343C1F8EC300123184636
S1131DD01437BD465DF8047B704700BFB081E00F47
S1131DE000300E4080B489B000AFF860B96011468D
S1131DF01A460B46FB711346BB710023FB6100239B
S1131E00BB61BB791A02FB79002B01D0012300E0EE
S1131E10002313437B617B6940F2011293422BD070
S1131E20B3F5817F07D2012B19D0012B4BD3B3F526
S1131E30807F55D07BE040F20122934229D040F2CA
S1131E400122934203D8B3F5007F56D06FE0B3F577
S1131E50407F5FD040F20132934227D067E0394B94
S1131E60D3F87431FB61FB6903F47F431B0ABB6144
S1131E70FB69DBB2FB615AE0324BD3F87431FB618E
S1131E80FB691B0EBB61FB6903F47F031B0CFB6145
S1131E904DE02C4BD3F87831FB61FB6903F47F43AD
S1131EA01B0ABB61FB69DBB2FB6140E0254BD3F845
S1131EB07831FB61FB691B0EBB61FB6903F47F0393
S1131EC01B0CFB6133E01F4BD3F86C31FB61FB69E6
S1131ED003F47F431B0ABB61FB69DBB2FB6126E0B1
S1131EE0184BD3F86C31FB61FB691B0EBB61FB69BA
S1131EF003F47F031B0CFB6119E0124BD3F8703120
S1131F00FB61FB6903F47F431B0ABB61FB69DBB222
S1131F10FB610CE00B4BD3F87031FB61FB691B0ECA
S1131F20BB61FB6903F47F031B0CFB6100BFFB680F
S1131F30FA691A60BB68BA691A602437BD465DF84D
S1131F40047B7047B081E00F80B584B000AF0346D6
S1131F50FB7100BF364B9B6F03F00103002BF9D1DB
S1131F60334B1B6C03F00303FB60FB68002B04D0B2
S1131F7030480D210122FFF70FFDFB68DBB2FA792F
S1131F809A4209D1FB79002B05D12A480D21002260
S1131F90FFF702FD48E047E0FB68032B02D0FB6833
S1131FA0002B20D1FB79022B02D0FB79012B1AD113
S1131FB04FF40020FFF738FD00BF1D4B9B6F03F06B
S1131FC00103002BF9D11A4A194B1B6C23F00303AC
S1131FD043F00103136400BFFFF734FD034603F429
S1131FE00023002BF8D000BF114B9B6F03F00103BB
S1131FF0002BF9D10E490E4B1B6C23F00302FB7925
S113200013430B6400BF0A4B9B6F03F00103002BC7
S1132010F9D1FB79002B14BF01230023DBB205485F
S11320200D211A46FFF7B8FC1037BD4680BD00BF2E
S113203000300E4054300E4080B584B000AF78605C
S1132040484B02229A63474B9B6B03F00F03022B0E
S113205001D0002381E0FFF78DFD7B685B78012BC5
S113206002D07B685B78022B7B68DB884A2B02D822
S11320700023FB6015E07B68DB88B3F5FA7F03D2AD
S11320804FF08053FB600CE07B68DB8840F6C312A2
S1132090934203D84FF00053FB6002E04FF04053EB
S11320A0FB6030482F4BDB6C23F0405323F00103DB
S11320B07A68928912B2002A01DB012100E0002132
S11320C0FA680A431343C364264A264BD3F8EC3018
S11320D043F44073C2F8EC30FFF754FD7B681B896E
S11320E01A467B689B891BB210461946FFF7DCFD34
S11320F07B689A881C4B1A807B689B88184600F082
S11321009DF97B689B7B1846FFF7E4FD7B685B8841
S113211018460121012200F02BF8034683F0010345
S1132120DBB2002B01D0002317E00E4A0D4BDB6B12
S113213043F48063D3637B685B781846FFF704FF3E
S11321407B689B7A202B01D1012300E00023074800
S113215005211A46FFF720FC012318461037BD4617
S113216080BD00BF00300E409E0000203C300E4079
S113217090B595B000AF78600B46FB701346BB700A
S11321800023FB6400237B6407F1240300221A600C
S1132190043300221A60043300221A60043307F166
S11321A0180300221A60043300221A600433002248
S11321B01A60043307F10C0300221A60043300226E
S11321C01A60043300221A60043300233B81002385
S11321D0BB727B68B3F5E16F06D37B6840F6B83217
S11321E0934201D8012300E0002387F8433097F895
S11321F0433003F0010387F8433097F8433083F00A
S11322000103DBB2002B01D000230FE17B68B3F59F
S1132210E16F8CBF0123002387F8423097F84230E6
S1132220002B0AD04FF4E163FB6440F6B8337B64BF
S11322307A6CFB6CD31ABB6409E04FF49663FB64BD
S11322404FF4E1637B647A6CFB6CD31ABB6497F83C
S11322504230002B0CD0774BD3F868313B623B6A99
S11322601B0E7B613B6A03F47F031B0C3B620BE098
S1132270704BD3F868313B623B6A03F47F431B0A1B
S11322807B613B6ADBB23B626B4BDB6C03F040531C
S11322901B0FDBB23B723B7A07F1180007F10C010C
S11322A097F84220FFF79EFD634BD3F8EC3003F41C
S11322B040731B0ADBB27B727C7A07F11803191D89
S11322C007F10C031A1D97F84230084611461A46C6
S11322D02346FFF787FD7A68FB6CD31A79693A6A5B
S11322E08A1A02FB03F2BB6CB2FBF3F3FB62FA6AD9
S11322F03B6A1344FB627A68FB6CD31AF968BA69C7
S11323008A1A02FB03F2BB6CB2FBF3F37B627A6AB8
S1132310BB6913447B627A68FB6CD31A3969FA6926
S11323208A1A02FB03F2BB6CB2FBF3F3BB62BA6A18
S1132330FB691344BB62FA6A7B699A4213D8FA6A4E
S11323403B6A9A420FD3BA6A3B699A420BD8BA6A7B
S1132350FB699A4207D37A6AFB689A4203D87A6A7D
S1132360BB699A4201D2002360E0BB78002B12D0F3
S11323703149314BDB6D23F4FE4323F00203FA6A47
S113238012021A4397F84230002B01D0022300E0D6
S113239000231343CB65FB78002B46D03B7A97F898
S11323A04220104619460022FFF7B2FC034683F090
S11323B00103DBB2002B01D0002337E07B7A97F8CE
S11323C04220104619460122FFF7A2FC034683F07F
S11323D00103DBB2002B01D0002327E07B6AFB63FF
S11323E0BB6ABB63BA6BFB6B934238BF13467B6219
S11323F07B6A7B63E7233B633A6B7B6B934228BF27
S113240013467B620C490C4B5B6E23F4FF7323F081
S113241001037A6A52001A4397F84230002B01D024
S1132420012300E0002313434B660123184654376D
S1132430BD4690BDB081E00F00300E4080B584B041
S113244000AF78600023FB60314B1B6F03F0070380
S1132450BB602F4BDB6C03F00103002B15D0BB6872
S1132460012B12D97B68132B02D80423FB600BE0E9
S11324707B68132B05D97B68272B02D80823FB60C4
S113248002E01023FB602DE02CE0214BDB6C03F019
S11324900103002B15D1BB68012B12D87B68092BD3
S11324A002D80423FB600BE07B68092B05D97B6809
S11324B0132B02D80823FB6002E01023FB6011E019
S11324C010E0134BDB6C03F00103002B0AD0BB6854
S11324D0012B07D87B68272B02D80823FB6001E077
S11324E01023FB60FB68013BFB60FB681A02FB687E
S11324F01B031343FB600649054BDB6C23F47F424B
S1132500FB681343CB64FFF75DFB1037BD4680BD0A
S113251000300E4080B584B000AF0346FB710F4815
S11325200021FFF74FFAF860FB68002B02D1FB791A
S1132530012B02D9FB68002B00D000BF0849084BCF
S11325401B6F23F00702FB7913430B67054B1B88B2
S11325501846FFF773FF1037BD4680BD4C300E4060
S113256000300E409E00002080B485B000AF78603B
S113257039607B6803F1C063FB60FB683A681A60EA
S11325801437BD465DF8047B704700BF80B485B046
S113259000AF786039607B6803F18063FB60FB689F
S11325A03A681A601437BD465DF8047B704700BF73
S11325B080B584B000AFF860B9607A60F868B96833
S11325C0FFF7E4FFF8687968FFF7CEFF1037BD46E0
S11325D080BD00BF80B582B000AF03463960FB7197
S11325E0FB79002B1CD0FB79012B19D0FB79022B32
S11325F016D0FB79032B13D0FB79042B10D0FB7975
S1132600052B0DD0FB79062B0AD0FB79072B07D0BD
S1132610FB79082B04D0FB79092B01D0FB790A2B19
S1132620FA7913465B0013441B010C3303F1804316
S113263003F520433A68012101FA02F218461146D3
S1132640FFF7A4FF0837BD4680BD00BF80B582B048
S113265000AF03463960FB71FB79002B1CD0FB797A
S1132660012B19D0FB79022B16D0FB79032B13D045
S1132670FB79042B10D0FB79052B0DD0FB79062BAD
S11326800AD0FB79072B07D0FB79082B04D0FB7900
S1132690092B01D0FB790A2BFA7913465B0013440A
S11326A01B010C3303F1804303F520433A680121F5
S11326B001FA02F218461146FFF756FF0837BD46E5
S11326C080BD00BF80B582B000AF03463960FB71A6
S11326D0FB79002B1DD0FB79012B1AD0FB79022B3F
S11326E017D0FB79032B14D0FB79042B17D0FB797B
S11326F0052B0ED0FB79062B11D0FB79072B0ED0BE
S1132700FB79082B05D0FB79092B02D0FB790A2B26
S113271005D13B6823F00113002B00D100BFFA79E7
S113272013465B0013441B0103F1804303F520436C
S113273018464FF001113A68FFF73AFF0837BD46D3
S113274080BD00BF90B585B000AFB9607B60034623
S1132750FB731346BB73FB7B002B1CD0FB7B012B51
S113276019D0FB7B022B16D0FB7B032B13D0FB7BF6
S1132770042B10D0FB7B052B0DD0FB7B062B0AD042
S1132780FB7B072B07D0FB7B082B04D0FB7B092B9F
S113279001D0FB7B0A2BBB7B002B0DD07B68002B6D
S11327A005D0FB7B1846B968FFF750FF04E0FB7BBC
S11327B01846B968FFF70EFFBB68072B1CD82B4CD3
S11327C0FA7B2A48F97B0B465B000B441B0103444C
S11327D05968BB689B0018460F238340DB430B40BA
S11327E0B97BB86880008140194313465B001344E9
S11327F01B012344596024E01C4CFA7B1B48F97BE1
S11328000B465B000B441B01034408331968BB6887
S113281003F18043083B9B0018460F238340DB43AE
S11328201940B87BBB6803F18043083B9B0000FA66
S113283003F3194313465B0013441B012344083379
S11328401960BB7B002B0DD17B68002B05D0FB7B73
S11328501846B968FFF7FAFE04E0FB7B1846B9682E
S1132860FFF7B8FE1437BD4690BD00BF00A000407E
S113287080B483B000AF78607B680D4A93420BD07C
S11328807B680C4A934207D07B680B4A934203D07F
S11328907B680A4A934201D1012300E0002303F03C
S11328A00103DBB218460C37BD465DF8047B704764
S11328B0008001400084014000A0014000A40140C8
S11328C080B584B000AF786039607868FFF7D0FFD6
S11328D00023FB603B681B7883F00103DBB2002B11
S11328E002D07B6802225A607B6800225A623B68ED
S11328F09B781A063B68DB781B041A433B689B7978
S11329009B021A433B68DB791B0213433A68127A31
S11329101A433B685B78002B01D0402300E000237E
S11329201A433B685B7A002B01D0802300E000232C
S11329301A433B689B7A002B01D0202300E000233C
S11329401A433B68DB7A002B01D0102300E00023FC
S11329501A433B681B7B002B01D0082300E00023B3
S11329601343FB603B681B79002B02D04FF40052E9
S113297000E000223B685B79002B02D04FF08053CB
S113298000E000231343FA681343FB607B68FA6892
S11329901A603B681B78002B02D07B6801225A60C6
S11329A01037BD4680BD00BF80B483B000AF03467E
S11329B0FB7197F90730002B0BDB084997F90730B7
S11329C05B09FA7902F01F02012000FA02F241F8D1
S11329D023200C37BD465DF8047B704700E100E01E
S11329E080B500AF0020032100220023FFF7AAFED8
S11329F080BD00BF80B586B000AF00233B740023C8
S1132A007B740023BB740023FB7400233B750023F9
S1132A107B7500233B7100237B710223BB71002370
S1132A20FB716B233B72FF237B720023BB72002379
S1132A30FB7200233B7300237B730023BB730023CF
S1132A40FB730D4B4FF480321A633B1D0A48194641
S1132A50FDF716FE07F1100307481946FDF7A6FD1A
S1132A60054A054B5B6C43F0010353640F20FFF7E9
S1132A709BFF1837BD4680BD0020004080B400AFE6
S1132A80034B9B6C034A1360BD465DF8047B70479F
S1132A9000200040A800002080B500AF1C4804219D
S1132AA0FEF77CFB1A480121FEF72AF901200021D8
S1132AB00022FEF769FD052000210022FEF764FDD7
S1132AC0002001210122FEF75FFD12480221FEF7DA
S1132AD065FB042001210122FEF756FD0E48072163
S1132AE0FEF75CFB0B480121FEF70AF90B480121B4
S1132AF0FEF706F90A480121FEF702F90948012107
S1132B00FEF7FEF804480121FEF7FAF880BD00BF85
S1132B104041050002001E0000D2040000250A0006
S1132B2000350A000002040080B400AF044BDB6CE3
S1132B301B0EDBB21846BD465DF8047B704700BF30
S1132B40B081E00F80B582B000AF154B01225A640A
S1132B50FFF7EAFF0346FB71FB79002B0CD1114B05
S1132B604AF6E8521A60104A0F4B1B6843F00403FC
S1132B7013600C4B00221A60FB79012B05D80B4A19
S1132B800A4B1B6843F400531360094A084B1B6A41
S1132B9023F4441343F4881313620837BD4680BDFD
S1132BA000000E4090310E4098310E4064310E40CA
S1132BB000400E40B0B58AB000AF1C4B07F11804BA
S1132BC0186859689A68DB680FC4194B3C1D1D4688
S1132BD028686968AA68EB680FC42B8A2380FFF70A
S1132BE0B1FF07F118031846FFF726FA3B1D1846F4
S1132BF0FEF758FC11200421FEF7D0FA032000212F
S1132C000022FEF7C1FCFFF747FF00F035F800F0A3
S1132C1013F8FFF7E5FEFFF7EDFEFEF7B5FE054BF3
S1132C2001229A60034B01229A60FBE7BC2D00004D
S1132C30CC2D00000020004080B500AF05204FF0EF
S1132C400111FFF73FFD0520062104220023FFF7B1
S1132C5079FD0520072104220023FFF773FD0520D9
S1132C60022104220023FFF76DFD05200321042225
S1132C700023FFF767FD80BD80B584B000AF01235A
S1132C803B7000237B700023BB700023FB70002388
S1132C903B7100237B710023BB710023FB71002374
S1132CA03B7200237B720023BB720023FB72002360
S1132CB03B733B460E481946FFF702FE0C4B43F6A6
S1132CC09822DA610A4B03221A63094B41F61F2248
S1132CD05A63074B03221A66054B00225A66044BBB
S1132CE003221A67024B00225A671037BD4680BD83
S1132CF00080014008B5074B044613B10021AFF32F
S1132D000080054B1868836A03B19847204600F099
S1132D1033F800BF00000000E02D000070B50E4B3A
S1132D200E4CE41AA41000251E46A54204D056F801
S1132D30253098470135F8E700F020F8084C094B96
S1132D40E41AA41000251E46A54204D056F82530E6
S1132D5098470135F8E770BD740000207400002026
S1132D60780000207400002002440346934202D0FD
S1132D7003F8011BFAE77047FEE700BFF8B500BF90
S1132D80F8BC08BC9E467047F8B500BFF8BC08BC48
S1132D909E46704740787D0100000000005A6202A0
S1132DA000010000C0CF6A0002000000809FD5002F
S1132DB002010000002D3101020200000002080798
S1132DC005000A00C8000000FFFF01000100000028
S1132DD0A00068010A200706020A04070000430055
S10B2DE01400002000000000B3
S10B2DE880D3FF7F010000000D
S1132DF0005A620200800000C0EA2101C0EA2101F9
S1132E00C0EA2101000000000000000000000000F2
S1132E1000000000000000000000000000000000AE
S1132E2000000000DE2D0000000000000000000093
S1132E30000000000000000000000000000000008E
S1132E40000000000000000000000000000000007E
S1132E50000000000000000000000000000000006E
S1132E6000000000310100000D010000000000001E
S90301DD1E
